{
  "contractName": "BookStorageFactoryContract",
  "abi": [
    {
      "anonymous": false,
      "inputs": [
        {
          "indexed": false,
          "internalType": "uint256",
          "name": "date",
          "type": "uint256"
        },
        {
          "indexed": false,
          "internalType": "string",
          "name": "_bookName",
          "type": "string"
        },
        {
          "indexed": false,
          "internalType": "uint256",
          "name": "bookId",
          "type": "uint256"
        },
        {
          "indexed": false,
          "internalType": "address",
          "name": "owner",
          "type": "address"
        },
        {
          "indexed": false,
          "internalType": "address",
          "name": "contractAddress",
          "type": "address"
        }
      ],
      "name": "ContractCreated",
      "type": "event"
    },
    {
      "inputs": [
        {
          "internalType": "string",
          "name": "_bookName",
          "type": "string"
        },
        {
          "internalType": "uint256",
          "name": "_bookId",
          "type": "uint256"
        }
      ],
      "name": "CreateBookStorage",
      "outputs": [
        {
          "internalType": "address",
          "name": "",
          "type": "address"
        }
      ],
      "stateMutability": "nonpayable",
      "type": "function"
    },
    {
      "inputs": [
        {
          "internalType": "address",
          "name": "_borrower",
          "type": "address"
        },
        {
          "internalType": "address",
          "name": "contractAddress",
          "type": "address"
        }
      ],
      "name": "BorrowBook",
      "outputs": [],
      "stateMutability": "nonpayable",
      "type": "function"
    },
    {
      "inputs": [
        {
          "internalType": "address",
          "name": "contractAddress",
          "type": "address"
        }
      ],
      "name": "ViewOwner",
      "outputs": [
        {
          "internalType": "address",
          "name": "",
          "type": "address"
        }
      ],
      "stateMutability": "view",
      "type": "function",
      "constant": true
    }
  ],
  "bytecode": "0x608060405234801561001057600080fd5b506111cc806100206000396000f3fe60806040523480156200001157600080fd5b5060043610620000465760003560e01c806375807a58146200004b578063944b91b91462000081578063b5a7382b14620000a1575b600080fd5b6200006960048036038101906200006391906200044c565b620000d7565b6040516200007891906200048f565b60405180910390f35b6200009f6004803603810190620000999190620004ac565b620001d7565b005b620000bf6004803603810190620000b9919062000690565b620002cf565b604051620000ce91906200048f565b60405180910390f35b6000806000600160008573ffffffffffffffffffffffffffffffffffffffff1673ffffffffffffffffffffffffffffffffffffffff168152602001908152602001600020548154811062000130576200012f620006f6565b5b9060005260206000200160009054906101000a900473ffffffffffffffffffffffffffffffffffffffff1690508073ffffffffffffffffffffffffffffffffffffffff16631686f2656040518163ffffffff1660e01b8152600401602060405180830381865afa158015620001a9573d6000803e3d6000fd5b505050506040513d601f19601f82011682018060405250810190620001cf91906200073c565b915050919050565b600080600160008473ffffffffffffffffffffffffffffffffffffffff1673ffffffffffffffffffffffffffffffffffffffff16815260200190815260200160002054815481106200022e576200022d620006f6565b5b9060005260206000200160009054906101000a900473ffffffffffffffffffffffffffffffffffffffff1690508073ffffffffffffffffffffffffffffffffffffffff166397f01209846040518263ffffffff1660e01b81526004016200029691906200048f565b600060405180830381600087803b158015620002b157600080fd5b505af1158015620002c6573d6000803e3d6000fd5b50505050505050565b600080838333604051620002e390620003c5565b620002f19392919062000812565b604051809103906000f0801580156200030e573d6000803e3d6000fd5b5090506000819080600181540180825580915050600190039060005260206000200160009091909190916101000a81548173ffffffffffffffffffffffffffffffffffffffff021916908373ffffffffffffffffffffffffffffffffffffffff1602179055507f5a7869b6cfd81982ea65dadecf02ebcbbf66636108ebe9b23a10824978808c444285853385604051620003ad95949392919062000856565b60405180910390a16000819050809250505092915050565b6108dc80620008bb83390190565b6000604051905090565b600080fd5b600080fd5b600073ffffffffffffffffffffffffffffffffffffffff82169050919050565b60006200041482620003e7565b9050919050565b620004268162000407565b81146200043257600080fd5b50565b60008135905062000446816200041b565b92915050565b600060208284031215620004655762000464620003dd565b5b6000620004758482850162000435565b91505092915050565b620004898162000407565b82525050565b6000602082019050620004a660008301846200047e565b92915050565b60008060408385031215620004c657620004c5620003dd565b5b6000620004d68582860162000435565b9250506020620004e98582860162000435565b9150509250929050565b600080fd5b600080fd5b6000601f19601f8301169050919050565b7f4e487b7100000000000000000000000000000000000000000000000000000000600052604160045260246000fd5b6200054882620004fd565b810181811067ffffffffffffffff821117156200056a57620005696200050e565b5b80604052505050565b60006200057f620003d3565b90506200058d82826200053d565b919050565b600067ffffffffffffffff821115620005b057620005af6200050e565b5b620005bb82620004fd565b9050602081019050919050565b82818337600083830152505050565b6000620005ee620005e88462000592565b62000573565b9050828152602081018484840111156200060d576200060c620004f8565b5b6200061a848285620005c8565b509392505050565b600082601f8301126200063a5762000639620004f3565b5b81356200064c848260208601620005d7565b91505092915050565b6000819050919050565b6200066a8162000655565b81146200067657600080fd5b50565b6000813590506200068a816200065f565b92915050565b60008060408385031215620006aa57620006a9620003dd565b5b600083013567ffffffffffffffff811115620006cb57620006ca620003e2565b5b620006d98582860162000622565b9250506020620006ec8582860162000679565b9150509250929050565b7f4e487b7100000000000000000000000000000000000000000000000000000000600052603260045260246000fd5b60008151905062000736816200041b565b92915050565b600060208284031215620007555762000754620003dd565b5b6000620007658482850162000725565b91505092915050565b600081519050919050565b600082825260208201905092915050565b60005b83811015620007aa5780820151818401526020810190506200078d565b83811115620007ba576000848401525b50505050565b6000620007cd826200076e565b620007d9818562000779565b9350620007eb8185602086016200078a565b620007f681620004fd565b840191505092915050565b6200080c8162000655565b82525050565b600060608201905081810360008301526200082e8186620007c0565b90506200083f602083018562000801565b6200084e60408301846200047e565b949350505050565b600060a0820190506200086d600083018862000801565b8181036020830152620008818187620007c0565b905062000892604083018662000801565b620008a160608301856200047e565b620008b060808301846200047e565b969550505050505056fe60806040523480156200001157600080fd5b50604051620008dc380380620008dc833981810160405281019062000037919062000392565b806000806101000a81548173ffffffffffffffffffffffffffffffffffffffff021916908373ffffffffffffffffffffffffffffffffffffffff160217905550826001600001908051906020019062000092929190620000a5565b5081600180018190555050505062000471565b828054620000b3906200043c565b90600052602060002090601f016020900481019282620000d7576000855562000123565b82601f10620000f257805160ff191683800117855562000123565b8280016001018555821562000123579182015b828111156200012257825182559160200191906001019062000105565b5b50905062000132919062000136565b5090565b5b808211156200015157600081600090555060010162000137565b5090565b6000604051905090565b600080fd5b600080fd5b600080fd5b600080fd5b6000601f19601f8301169050919050565b7f4e487b7100000000000000000000000000000000000000000000000000000000600052604160045260246000fd5b620001be8262000173565b810181811067ffffffffffffffff82111715620001e057620001df62000184565b5b80604052505050565b6000620001f562000155565b9050620002038282620001b3565b919050565b600067ffffffffffffffff82111562000226576200022562000184565b5b620002318262000173565b9050602081019050919050565b60005b838110156200025e57808201518184015260208101905062000241565b838111156200026e576000848401525b50505050565b60006200028b620002858462000208565b620001e9565b905082815260208101848484011115620002aa57620002a96200016e565b5b620002b78482856200023e565b509392505050565b600082601f830112620002d757620002d662000169565b5b8151620002e984826020860162000274565b91505092915050565b6000819050919050565b6200030781620002f2565b81146200031357600080fd5b50565b6000815190506200032781620002fc565b92915050565b600073ffffffffffffffffffffffffffffffffffffffff82169050919050565b60006200035a826200032d565b9050919050565b6200036c816200034d565b81146200037857600080fd5b50565b6000815190506200038c8162000361565b92915050565b600080600060608486031215620003ae57620003ad6200015f565b5b600084015167ffffffffffffffff811115620003cf57620003ce62000164565b5b620003dd86828701620002bf565b9350506020620003f08682870162000316565b925050604062000403868287016200037b565b9150509250925092565b7f4e487b7100000000000000000000000000000000000000000000000000000000600052602260045260246000fd5b600060028204905060018216806200045557607f821691505b6020821081036200046b576200046a6200040d565b5b50919050565b61045b80620004816000396000f3fe608060405234801561001057600080fd5b506004361061004c5760003560e01c806305a8da72146100515780631686f2651461007057806397f012091461008e578063b387ef92146100aa575b600080fd5b6100596100c8565b6040516100679291906102db565b60405180910390f35b610078610162565b604051610085919061034c565b60405180910390f35b6100a860048036038101906100a39190610398565b61018b565b005b6100b2610205565b6040516100bf919061034c565b60405180910390f35b60018060000180546100d9906103f4565b80601f0160208091040260200160405190810160405280929190818152602001828054610105906103f4565b80156101525780601f1061012757610100808354040283529160200191610152565b820191906000526020600020905b81548152906001019060200180831161013557829003601f168201915b5050505050908060010154905082565b60008060009054906101000a900473ffffffffffffffffffffffffffffffffffffffff16905090565b806000806101000a81548173ffffffffffffffffffffffffffffffffffffffff021916908373ffffffffffffffffffffffffffffffffffffffff1602179055507f81d5c3a6450cf62f8f0a4e59f7c31d777020fc40b464b8308f220a923b487292816040516101fa919061034c565b60405180910390a150565b60008054906101000a900473ffffffffffffffffffffffffffffffffffffffff1681565b600081519050919050565b600082825260208201905092915050565b60005b83811015610263578082015181840152602081019050610248565b83811115610272576000848401525b50505050565b6000601f19601f8301169050919050565b600061029482610229565b61029e8185610234565b93506102ae818560208601610245565b6102b781610278565b840191505092915050565b6000819050919050565b6102d5816102c2565b82525050565b600060408201905081810360008301526102f58185610289565b905061030460208301846102cc565b9392505050565b600073ffffffffffffffffffffffffffffffffffffffff82169050919050565b60006103368261030b565b9050919050565b6103468161032b565b82525050565b6000602082019050610361600083018461033d565b92915050565b600080fd5b6103758161032b565b811461038057600080fd5b50565b6000813590506103928161036c565b92915050565b6000602082840312156103ae576103ad610367565b5b60006103bc84828501610383565b91505092915050565b7f4e487b7100000000000000000000000000000000000000000000000000000000600052602260045260246000fd5b6000600282049050600182168061040c57607f821691505b60208210810361041f5761041e6103c5565b5b5091905056fea2646970667358221220a136d04ec22b633f1bfc201e6c17164d760ce9db030629154eabf948623dd3ed64736f6c634300080d0033a2646970667358221220a5293deb01f3692cf77a6313f347ca62bf29cc11003655abe796f8057fb0196264736f6c634300080d0033",
  "immutableReferences": {},
  "source": "// SPDX-License-Identifier: MIT\r\npragma solidity ^0.8.8;\r\nimport \"./BookStorageContract.sol\";\r\ncontract BookStorageFactoryContract {\r\n    event ContractCreated (\r\n        uint date,\r\n        string _bookName,\r\n        uint bookId,\r\n        address owner,\r\n        address contractAddress\r\n    );\r\n    BookStorageContract[] internal storageContractArray;\r\n    mapping(address => uint) private addressToIndex;\r\n\r\n\r\n    function CreateBookStorage(string memory _bookName, uint _bookId) public returns(address){\r\n        BookStorageContract bookContract = new BookStorageContract(_bookName, _bookId,address(msg.sender));\r\n        storageContractArray.push(bookContract);\r\n        emit ContractCreated(\r\n            block.timestamp,\r\n            _bookName,\r\n            _bookId,\r\n            address(msg.sender),\r\n            address(bookContract)\r\n        );\r\n        address subcontractaddress = address(bookContract);\r\n        return subcontractaddress;\r\n    }\r\n\r\n    function BorrowBook (address _borrower, address contractAddress) public {\r\n        BookStorageContract bookContract = storageContractArray[addressToIndex[contractAddress]];\r\n        bookContract.Borrow(_borrower);\r\n    }\r\n\r\n    function ViewOwner (address contractAddress) public view returns(address){\r\n        BookStorageContract bookContract = storageContractArray[addressToIndex[contractAddress]];\r\n        return bookContract.View();\r\n    }\r\n\r\n\r\n}",
  "sourcePath": "C:\\Users\\PC\\OneDrive\\PC\\FinalClient\\smartlib\\smartcontract\\contracts\\BookStorageFactoryContract.sol",
  "compiler": {
    "name": "solc",
    "version": "0.8.13+commit.abaa5c0e.Emscripten.clang"
  },
  "schemaVersion": "3.4.10",
  "updatedAt": "2022-11-02T08:38:07.405Z",
  "networkType": "ethereum",
  "devdoc": {
    "kind": "dev",
    "methods": {},
    "version": 1
  },
  "userdoc": {
    "kind": "user",
    "methods": {},
    "version": 1
  }
}