{
  "contractName": "BookStorageContract",
  "abi": [
    {
      "inputs": [
        {
          "internalType": "string",
          "name": "_bookName",
          "type": "string"
        },
        {
          "internalType": "uint256",
          "name": "_bookId",
          "type": "uint256"
        },
        {
          "internalType": "address",
          "name": "owner",
          "type": "address"
        }
      ],
      "stateMutability": "nonpayable",
      "type": "constructor"
    },
    {
      "anonymous": false,
      "inputs": [
        {
          "indexed": false,
          "internalType": "address",
          "name": "to",
          "type": "address"
        }
      ],
      "name": "BorrowEvent",
      "type": "event"
    },
    {
      "inputs": [],
      "name": "book",
      "outputs": [
        {
          "internalType": "string",
          "name": "bookName",
          "type": "string"
        },
        {
          "internalType": "uint256",
          "name": "bookId",
          "type": "uint256"
        }
      ],
      "stateMutability": "view",
      "type": "function"
    },
    {
      "inputs": [],
      "name": "currentOwner",
      "outputs": [
        {
          "internalType": "address",
          "name": "",
          "type": "address"
        }
      ],
      "stateMutability": "view",
      "type": "function"
    },
    {
      "inputs": [
        {
          "internalType": "address",
          "name": "nextBorrower",
          "type": "address"
        }
      ],
      "name": "Borrow",
      "outputs": [],
      "stateMutability": "nonpayable",
      "type": "function"
    },
    {
      "inputs": [],
      "name": "View",
      "outputs": [
        {
          "internalType": "address",
          "name": "",
          "type": "address"
        }
      ],
      "stateMutability": "view",
      "type": "function"
    }
  ],
  "bytecode": "0x60806040523480156200001157600080fd5b50604051620008dc380380620008dc833981810160405281019062000037919062000392565b806000806101000a81548173ffffffffffffffffffffffffffffffffffffffff021916908373ffffffffffffffffffffffffffffffffffffffff160217905550826001600001908051906020019062000092929190620000a5565b5081600180018190555050505062000471565b828054620000b3906200043c565b90600052602060002090601f016020900481019282620000d7576000855562000123565b82601f10620000f257805160ff191683800117855562000123565b8280016001018555821562000123579182015b828111156200012257825182559160200191906001019062000105565b5b50905062000132919062000136565b5090565b5b808211156200015157600081600090555060010162000137565b5090565b6000604051905090565b600080fd5b600080fd5b600080fd5b600080fd5b6000601f19601f8301169050919050565b7f4e487b7100000000000000000000000000000000000000000000000000000000600052604160045260246000fd5b620001be8262000173565b810181811067ffffffffffffffff82111715620001e057620001df62000184565b5b80604052505050565b6000620001f562000155565b9050620002038282620001b3565b919050565b600067ffffffffffffffff82111562000226576200022562000184565b5b620002318262000173565b9050602081019050919050565b60005b838110156200025e57808201518184015260208101905062000241565b838111156200026e576000848401525b50505050565b60006200028b620002858462000208565b620001e9565b905082815260208101848484011115620002aa57620002a96200016e565b5b620002b78482856200023e565b509392505050565b600082601f830112620002d757620002d662000169565b5b8151620002e984826020860162000274565b91505092915050565b6000819050919050565b6200030781620002f2565b81146200031357600080fd5b50565b6000815190506200032781620002fc565b92915050565b600073ffffffffffffffffffffffffffffffffffffffff82169050919050565b60006200035a826200032d565b9050919050565b6200036c816200034d565b81146200037857600080fd5b50565b6000815190506200038c8162000361565b92915050565b600080600060608486031215620003ae57620003ad6200015f565b5b600084015167ffffffffffffffff811115620003cf57620003ce62000164565b5b620003dd86828701620002bf565b9350506020620003f08682870162000316565b925050604062000403868287016200037b565b9150509250925092565b7f4e487b7100000000000000000000000000000000000000000000000000000000600052602260045260246000fd5b600060028204905060018216806200045557607f821691505b6020821081036200046b576200046a6200040d565b5b50919050565b61045b80620004816000396000f3fe608060405234801561001057600080fd5b506004361061004c5760003560e01c806305a8da72146100515780631686f2651461007057806397f012091461008e578063b387ef92146100aa575b600080fd5b6100596100c8565b6040516100679291906102db565b60405180910390f35b610078610162565b604051610085919061034c565b60405180910390f35b6100a860048036038101906100a39190610398565b61018b565b005b6100b2610205565b6040516100bf919061034c565b60405180910390f35b60018060000180546100d9906103f4565b80601f0160208091040260200160405190810160405280929190818152602001828054610105906103f4565b80156101525780601f1061012757610100808354040283529160200191610152565b820191906000526020600020905b81548152906001019060200180831161013557829003601f168201915b5050505050908060010154905082565b60008060009054906101000a900473ffffffffffffffffffffffffffffffffffffffff16905090565b806000806101000a81548173ffffffffffffffffffffffffffffffffffffffff021916908373ffffffffffffffffffffffffffffffffffffffff1602179055507f81d5c3a6450cf62f8f0a4e59f7c31d777020fc40b464b8308f220a923b487292816040516101fa919061034c565b60405180910390a150565b60008054906101000a900473ffffffffffffffffffffffffffffffffffffffff1681565b600081519050919050565b600082825260208201905092915050565b60005b83811015610263578082015181840152602081019050610248565b83811115610272576000848401525b50505050565b6000601f19601f8301169050919050565b600061029482610229565b61029e8185610234565b93506102ae818560208601610245565b6102b781610278565b840191505092915050565b6000819050919050565b6102d5816102c2565b82525050565b600060408201905081810360008301526102f58185610289565b905061030460208301846102cc565b9392505050565b600073ffffffffffffffffffffffffffffffffffffffff82169050919050565b60006103368261030b565b9050919050565b6103468161032b565b82525050565b6000602082019050610361600083018461033d565b92915050565b600080fd5b6103758161032b565b811461038057600080fd5b50565b6000813590506103928161036c565b92915050565b6000602082840312156103ae576103ad610367565b5b60006103bc84828501610383565b91505092915050565b7f4e487b7100000000000000000000000000000000000000000000000000000000600052602260045260246000fd5b6000600282049050600182168061040c57607f821691505b60208210810361041f5761041e6103c5565b5b5091905056fea2646970667358221220a136d04ec22b633f1bfc201e6c17164d760ce9db030629154eabf948623dd3ed64736f6c634300080d0033",
  "immutableReferences": {},
  "source": "// SPDX-License-Identifier: MIT\r\npragma solidity ^0.8.8;\r\n\r\ncontract BookStorageContract {\r\n    event BorrowEvent(address to);\r\n    \r\n    address public currentOwner;\r\n    struct BookInformation{\r\n        string bookName;\r\n        uint bookId;\r\n    }    \r\n    BookInformation public book;\r\n\r\n    constructor(string memory _bookName, uint _bookId, address owner) {\r\n        currentOwner = owner;\r\n        book.bookName = _bookName;\r\n        book.bookId = _bookId;\r\n    }\r\n\r\n    function Borrow(address nextBorrower) public {\r\n        currentOwner = nextBorrower;\r\n        emit BorrowEvent(nextBorrower);\r\n    }\r\n    function View () public view returns(address){\r\n        return currentOwner;\r\n    }\r\n}\r\n\r\n",
  "sourcePath": "C:\\Users\\PC\\OneDrive\\PC\\FinalClient\\smartlib\\smartcontract\\contracts\\BookStorageContract.sol",
  "compiler": {
    "name": "solc",
    "version": "0.8.13+commit.abaa5c0e.Emscripten.clang"
  },
  "schemaVersion": "3.4.10",
  "updatedAt": "2022-11-02T08:38:00.505Z",
  "devdoc": {
    "kind": "dev",
    "methods": {},
    "version": 1
  },
  "userdoc": {
    "kind": "user",
    "methods": {},
    "version": 1
  }
}